:020000040800F2
:10000000E8040020AD010008971500081714000847
:10001000951500080D0400087F1800080000000076
:10002000000000000000000000000000271600088B
:100030000F040008000000002516000891160008B3
:10004000C7010008C7010008C7010008C701000870
:10005000C7010008C7010008C7010008C701000860
:10006000C7010008C7010008C7010008C701000850
:10007000C7010008C7010008C7010008C701000840
:10008000C7010008C7010008DD02000800000000E9
:10009000000000000000000000000000C701000890
:1000A000C7010008C7010008C7010008C701000810
:1000B0006D17000879170008C7010008C70100087C
:1000C000C7010008C7010008C7010008C7010008F0
:1000D000C7010008C7010008C701000800000000B0
:1000E000C7010008C7010008C701000800000000A0
:1000F000000000000000000000000000C701000830
:1001000000000000C7010008C7010008C70100087F
:1001100000000000000000000000000000000000DF
:10012000C7010008C7010008C7010008C70100088F
:10013000C7010008000000000000000000000000EF
:10014000000000000000000000000000C7010008DF
:10015000C7010008C7010008C7010008C70100085F
:10016000C7010008C70100080000000000000000EF
:10017000000000000000000000000000000000007F
:1001800000000000C701000800000000000000009F
:10019000C7010008C7010008DFF80CD000F08CF898
:1001A00000480047A1180008E804002006488047DE
:1001B00006480047FEE7FEE7FEE7FEE7FEE7FEE74C
:1001C000FEE7FEE7FEE7FEE71917000899010008C1
:1001D0002DE9F05F0546002092469B46884606467C
:1001E000814640241BE0284641464746224600F00F
:1001F00053F853465A46C01A914110D31146184637
:10020000224600F03AF82D1A67EB01084F462246C5
:100210000120002100F031F817EB00094E41201EAB
:10022000A4F10104DFDC484631462A464346BDE8D6
:10023000F09F40EA01039B0703D009E008C9121FA1
:1002400008C0042AFAD203E011F8013B00F8013B90
:10025000521EF9D27047D2B201E000F8012B491EBC
:10026000FBD270470022F6E710B513460A46044653
:100270001946FFF7F0FF204610BD202A04DB203A84
:1002800000FA02F1002070479140C2F1200320FAE9
:1002900003F3194390407047202A04DB203A21FAE7
:1002A00002F00021704721FA02F3D040C2F120028F
:1002B0009140084319467047064C074D06E0E06838
:1002C00040F0010394E8070098471034AC42F6D39D
:1002D000FFF766FF3C1900085C190008014800F0B0
:1002E00048B9000024000020454910B54A6822F4AE
:1002F00040324A604A6843681A434A6001684A6863
:1003000022F480724A6001684A68036942EA032263
:100310004A6001684A6822F040724A6001684A688F
:1003200083681A434A6001688A6822F400628A601E
:1003300001688A68C3681A438A60816A6FF07062D4
:10034000D14201688A6822F070628A6001688A6816
:100350000CD0836A1A438A6001688A6822F040528E
:100360008A6001688A68C36A1A4301E022F0405239
:100370008A6001688A6822F002028A6001688A68DD
:10038000836942EA43028A60016A002901684A6877
:100390000FD042F400624A6001684A6822F4604269
:1003A0004A6001684A68174C436A04EB43331A43B6
:1003B00001E022F400624A600168CA6A22F4700215
:1003C000CA620168CA6A838B0F4C04EB03531A4359
:1003D000CA6201688A6822F400728A6001688A68C9
:1003E000036B42EA43228A6001688A6822F48062D1
:1003F0008A6001688A68406942EA8020886010BD8E
:100400000023014000E0FFFF0000F0FFFEE770471F
:100410007047000078B50024009490F83C20012A31
:1004200019D0012280F83C200A6807230568092AB0
:1004300013D9EE680A3A02EB420293409E43EE6003
:100440000A788B680A3A02EB420293400268D56848
:100450002B43D36010E0022078BD2E6902EB4202EC
:1004600093409E432E610A788B6802EB42029340D0
:10047000026815692B4313614A681F23072A13D2A8
:1004800005686E6B521E02EB820293409E436E63C0
:100490000B790A885B1E92B203EB83039A400368D0
:1004A0005D6B2A435A6327E005680D2A12D22E6B32
:1004B000D21F02EB820293409E432E630B790A887F
:1004C000DB1F92B203EB83039A4003681D6B2A4340
:1004D0001A6311E0EE6A0D3A02EB820293409E43EA
:1004E000EE620B790A880D3B92B203EB83039A40CC
:1004F0000368DD6A2A43DA62174B0568154A9D4294
:1005000006D10D68122D03D1556845F4800555605C
:1005100005689D4219D1114D0B68AB4201D0112BDA
:1005200013D1536843F4000353600968A9420CD106
:100530000B490C4A0968B1FBF2F101EB810149005A
:1005400000E0491E00910029FBD180F83C400020CA
:1005500078BD00000023014000200140120000107F
:100560002000002040420F00704770470068C06CB8
:10057000704770B50446006801684268C1F34001E5
:10058000C2F3401251B34AB3216CC90603D4216CA3
:1005900041F400712164816811F0405F17D1A169B5
:1005A000A9B9C16A11F4700F02D0816849050ED44F
:1005B000416821F020014160206C20F480702064AB
:1005C000206CC00403D4206C40F00100206420465D
:1005D000FFF7CAFF21686FF0120008602068016809
:1005E0004268C1F38001C2F3C01289B382B3216CA7
:1005F000C90603D4216C41F400512164816811F4CF
:10060000401F1ED1816B11F4401F02D08168490543
:1006100017D44168490514D4816811F0405F10D1A6
:10062000A16971B9416821F080014160206C20F41A
:1006300080502064206CC00503D4206C40F0010081
:1006400020642046FFF7E4FE21686FF00C0008608C
:1006500020680168426811F0010FC2F380120ED0C9
:100660006AB10068C0070AD0206C40F48030206472
:10067000204600F046F821686FF00100086020680D
:1006800001684268C1F34011C2F3806200290DD0B5
:10069000002A0BD0616C41F0020161646FF020050B
:1006A00005602046FFF761FF2068056070BD70B5EA
:1006B00004004FF0000503D0206C002610B107E0C5
:1006C000012070BD666484F83C60204600F01AF892
:1006D000206CC00610D4206C20F4885040F002003A
:1006E00020642046FFF700FE6664206C20F00200C4
:1006F00040F00100206400E0012584F83C602846B9
:1007000070BD704710B586B0044614216846FFF7E7
:10071000A9FD15492068884224D1144800210268A7
:1007200042F480720260006800F4807005900F4807
:100730001438026842F004020260006800F004000D
:100740000590012000900320CDE901016946084889
:1007500000F0C0F800221146122000F0F7F9122034
:1007600000F0E8F906B010BD002001404438024016
:10077000000802402DE9F041044600680D468168FA
:100780004FF0000749050BD58068C00508D5206CDF
:1007900040F02000206484F83C700120BDE8F08126
:1007A00000F066F906460FE0681C0DD025B100F098
:1007B0005FF9801BA84207D9206C40F00400206438
:1007C00084F83C700320E9E7206800688007EBD5D7
:1007D00021686FF012000860206C40F40070206403
:1007E0002068816811F0405F13D1A16989B9C16A9D
:1007F00011F4700F02D0806840050AD4206C20F4F8
:1008000080702064206CC00403D4206C40F0010090
:1008100020640020C2E7000018B50021009190F884
:100820003C20012A07D0012280F83C20026893680E
:10083000DB0702D011E0022018BD936843F00103EA
:100840009360204A204B1268B2FBF3F202EB4202A3
:1008500000E0521E0092002AFBD102689368DB0779
:100860002DD0036C40F20164A34343F4807303640E
:1008700053685B0505D5036C23F4005343F48053A0
:100880000364036CDB0404D5436C23F00603436468
:1008900000E0416480F83C100C496FF022031360C3
:1008A00049680068C90602D00949884207D18168B1
:1008B00011F0405F03D1816841F0804181600020E8
:1008C00018BD00002000002040420F00002301401E
:1008D000002001402DE9F84FDFF860B100224FF011
:1008E00001084FF0030A4FF00F090BF1040E00BF8F
:1008F0000B6808FA02F42340A3426ED14D68022D22
:1009000001D0122D0ED1D50800EB850CDCF820505B
:100910005607F70E09FA07F6B5430E69BE402E4397
:10092000CCF82060066855000F790AFA05FC07F03C
:10093000030726EA0C06AF40374307604E68012ED6
:1009400005D0022E03D0112E01D0122E0ED18668B2
:10095000CF6826EA0C06AF40374387604668A64357
:100960000C79C4F30014944034434460C6688C6826
:1009700026EA0C06AC403443C4604C68E40056D50B
:100980002F4C256845F480452560246822F0030536
:1009900004F4804400942B4C2E19D6F8084895078F
:1009A0002F0F09FA07F5AC43274DA84201D10025C6
:1009B00015E0264DA84201D1012510E0244DA842A2
:1009C00001D102250BE0234DA84201D1032506E009
:1009D000214DA84202D1042501E028E00725BD40B1
:1009E0002543C6F80858DBF800405D464E689C4336
:1009F000F60300D51C432C60DEF8004075464E68B7
:100A00009C43B60300D51C432C600C4D08352C6864
:100A10004E689C43F60200D51C432C60074D0C35F4
:100A20002C684E689C43B60200D51C432C60521CB7
:100A3000102AFFF45DAFBDE8F88F0000003C0140D4
:100A400044380240003001400000024000040240EF
:100A500000080240000C02400010024000690840FB
:100A600000D0012070470AB1816170470904FBE79B
:100A70000148806870470000140000200248816827
:100A80000278114481607047140000200B4810B5B3
:100A9000016841F400710160016841F48061016006
:100AA000016841F480710160032000F06FF80020BC
:100AB00000F006F800F024F8002010BD003C0240D1
:100AC00070B50D4D04464FF47A712878B1FBF0F003
:100AD0000A490968B1FBF0F000F0C0FA48B9102CDF
:100AE00007D200222146501E00F030F800206C6032
:100AF00070BD012070BD0000140000202000002007
:100B00000B4882B0016841F480410160006800F444
:100B1000804000900648001F016841F0805101604C
:100B2000006800F080500090072002B000F02EB85E
:100B30004438024000F01F0201219140400980002A
:100B400000F1E020C0F8001170470000F0B40E4B37
:100B50001B680C46C3F30223C3F10705042D00D91B
:100B60000425191D072901D2002300E0DB1E012600
:100B700006FA05F1491E214099409E40761E164016
:100B80003143F0BC00F008BD0CED00E0064900F078
:100B9000070208684FF6FF03184040EA0220034AA4
:100BA00010430860704700000CED00E00000FA05FB
:100BB0002DE9F0470E46050065D0DFF81481D8F81E
:100BC0000000F7B200F00F00B04207D288F80070C2
:100BD000D8F8000000F00F00B04254D128683D4C16
:100BE000810712D5400703D5206840F4E05020600B
:100BF0002878000703D5206840F460402060206812
:100C0000A96820F0F000084320602878C0072DD0A4
:100C1000304968680839012812D0022813D0032807
:100C200011D00968890700292DDA216821F0030114
:100C300001432160FFF71CFF814641F2883A0EE034
:100C400009688903EFE709688901ECE7FFF710FFFE
:100C5000A0EB0901514502D90320BDE8F0872068C7
:100C6000696800F00C00B0EB810FEFD1D8F80010EC
:100C7000404601F00F01B14207D90770006800F04B
:100C80000F00B04201D00120E7E72878400705D5E2
:100C90002068E96820F4E0500843206028780007C5
:100CA00006D52068296920F4604040EAC100206030
:100CB00000F016F82168084AC1F30311515CC840DE
:100CC000064908600020FFF7FBFE0020C5E7000092
:100CD000003C0240083802402C1900082000002087
:100CE000154810B5006810F00C02144813D04110DC
:100CF000042A0FD0082A0ED10F4C241F2268236823
:100D000002F03F025B0207D52068C0F38810A0FB09
:100D1000010106E0084610BD2168C1F38811A1FB5E
:100D200000010023FFF754FA2168C1F30141491C77
:100D30004900B0FBF1F010BD083802400024F40077
:100D40002DE9F84F050076D02878DFF8F8B2BE4CD0
:100D5000C00749D0DBF800105846C1F381010129D2
:100D600008D00068C0F3810002280AD1201D006865
:100D7000400206D52068800336D568680028E2D096
:100D800032E06868B0F5803F10D0B0F5A02F206841
:100D900010D020F480302060206820F48020206073
:100DA0006868A0B1FFF764FE06460CE0206840F4D6
:100DB0008030F4E740F480202060F7E7FFF758FE2A
:100DC000801B642873D820688003F7D50CE0FFF7F8
:100DD0004FFE064605E000BFFFF74AFE801B642871
:100DE000F0D820688003F7D42878DFF86082800785
:100DF0004FF000093ED5DBF80010584611F00C0FFB
:100E000009D00068C0F3810002280BD18D48001F73
:100E10000068400206D42068800715D5E8680128DC
:100E200009D111E0E868B8B10120C8F80000FFF767
:100E30001FFE064605E002E1FFF71AFE801B0228AE
:100E4000C0D820688007F7D52068296920F0F8000D
:100E500040EAC10020600DE0C8F80090FFF708FEEE
:100E6000064604E0FFF704FE801B02281FD8206816
:100E70008007F7D42878000722D5724E7448696934
:100E80006C3671B101210160FFF7F2FD074604E005
:100E9000FFF7EEFDC01B022809D830688007F7D5A0
:100EA0000EE0C0F80090FFF7E3FD074605E083E0A1
:100EB000FFF7DEFDC01B02287ED830688007F7D41C
:100EC0002878400768D5DFF87CA100270AF1380AA6
:100ED000DAF80000C0000BD4DAF8001041F08051BD
:100EE000CAF80010DAF80000012700F080500090E6
:100EF000584E3068C00510D4306840F480703060BF
:100F0000FFF7B6FD009005E0FFF7B2FD0099401A2B
:100F1000022851D83068C005F6D54A4EA868683610
:100F200001280FD00528306810D020F00100306073
:100F3000306820F004003060A868B8B1FFF798FD71
:100F400000900FE0306840F00100F4E740F004004A
:100F50003060F7E7FFF78CFD0099411A41F28830C5
:100F6000814264D830688007F4D50EE0FFF780FD39
:100F7000009007E0FFF77CFD0099411A41F28830AC
:100F8000814254D830688007F4D42FB1DAF80010C9
:100F900021F08051CAF80010A869C0B3DBF8001036
:100FA000C1F3810102294AD00228484607D0C8F877
:100FB0006000FFF75DFD00E039E005463AE0474696
:100FC000C8F86000FFF754FD064604E0FFF750FD47
:100FD000801B02282BD820688001F7D4D5E90701AF
:100FE0000843A96A1C4A490802EB01416A6A41EABE
:100FF0008211084395F82C1040EA01611148001F46
:10100000016001203866FFF733FD054605E014E076
:10101000FFF72EFD401B022809D820688001F7D574
:101020000BE000BFFFF724FD401B022802D903207C
:10103000BDE8F88F20688001F4D40020F8E7012093
:10104000F6E700000838024000380240000047423E
:10105000800E4742007000400000FFFF10B5401EA8
:10106000B0F1807F01D3012010BD4FF0E02460611A
:101070000F21601700F090FA0020A0610720206186
:10108000002010BD7047704730B590F83820012A15
:1010900020D0012280F83820022380F839300368FC
:1010A0005C6824F070045C6003685C680D682C4325
:1010B0005C6003689C6824F080049C6003689C6802
:1010C00049680C439C6080F83920002180F8381072
:1010D000084630BD022030BD10B5040003D094F89E
:1010E000390010B107E0012010BD002084F838005D
:1010F000204600F00DF8022084F83900211D2068F8
:1011000000F040FB012084F83900002010BD0000F1
:1011100008B501681448B1F1804F14D0134A9142C8
:1011200020D1016841F0020101600068002200F056
:101130000200009011461D20FFF708FD1D20BDE8AC
:101140000840FFF7F7BC016841F001010160006849
:10115000002200F00100009011461C20FFF7F6FC71
:101160001C20ECE708BD00004038024000040040AD
:101170000168CA6842F00102CA600068016841F073
:10118000010101600020704770B5044690F83800F6
:10119000012817D0012584F83850022084F839003E
:1011A0002068826822F0770222F47F428260086819
:1011B000502837D00DDC202859D005DC88B3102802
:1011C00041D151E0022070BD302853D040283AD19F
:1011D0003FE060282ED070280BD0B0F5805F03D0A0
:1011E000B0F5005F2FD110E02068816821F0070181
:1011F00015E0CB68D1E90121206800F00BFB2168E4
:10120000886840F0770088601DE0CB68D1E9012153
:10121000206800F0FFFA2068816841F48041816015
:1012200011E01EE0CA684968206800F005FB502103
:10123000206806E0CA684968206800F00EFB60215B
:10124000206800F0F1FA84F83950002084F8380062
:1012500070BDCA684968206800F0EEFA4021206835
:10126000EFE700212068ECE710212068E9E7202162
:101270002068E6E730212068E3E7704770B5044650
:10128000006801694FF00005C943890715D4C1689A
:10129000C943890711D4E91E016101202076206825
:1012A00080698007204602D0FFF7E7FF04E000F0E6
:1012B00098F8204600F096F8257620680169C94321
:1012C000490717D4C168C943490713D46FF0040113
:1012D0000161022020762068806910F4407F20465A
:1012E00002D0FFF7CAFF04E000F07BF8204600F0D0
:1012F00079F8257620680169C943090716D4C168C1
:10130000C943090712D46FF0080101610420207657
:101310002068C0698007204602D0FFF7AEFF04E0D6
:1013200000F05FF8204600F05DF82576206801693E
:10133000C943C90617D4C168C943C90613D46FF09D
:1013400010010161082020762068C06910F4407FF8
:10135000204602D0FFF791FF04E000F042F820465B
:1013600000F040F8257620680169C943C90708D113
:10137000C168C943C90704D1891E0161204600F034
:1013800033F820680169C943090609D4C168C94313
:10139000090605D46FF0800101612046FFF772FE57
:1013A00020680169C943490609D4C168C94349068F
:1013B00005D46FF040010161204600F02BF8206851
:1013C0000169C94389060BD4C168C943890607D49A
:1013D0006FF0200101612046BDE87040FFF753BE69
:1013E00070BD70477047000001680848B1F1804F38
:1013F00007D0074A914203D1417881F00101417041
:101400007047017881F001010170704700000020F1
:10141000000400407047FEE77FB500240F480094A9
:10142000019402940C490394C0E90014846004619F
:101430000462C462012584628561C561C46005637C
:101440004461FFF734F90A20CDE9000569460294AA
:101450000248FEF7DFFF7FBD00200140240000208E
:10146000F0B587B014216846FEF7FCFE1D48002445
:10147000016841F004010160016801F00401059177
:10148000016841F001010160016801F0010105916D
:10149000016841F0080101600068134F00F0080086
:1014A0004FF460460590002231463846FFF7DBFADC
:1014B0000220CDE9000469460C480294FFF70AFABD
:1014C0000125CDE90054694609480294FFF702FA64
:1014D0000096CDE90154694638460394FFF7FAF9BE
:1014E00007B0F0BD30380240000C02400008024056
:1014F0000000024010B586B0002411480094019409
:101500000294039404944FF08041059401604FF4D9
:10151000FA51C0E90114C910C0E90314FFF7DCFD5A
:101520004FF48050009069460548FFF72DFE2020BB
:10153000CDE9040404A90248FFF7A6FD06B010BDDA
:101540006C00002010B586B000241148009401946E
:101550000294039404940D49059401604FF4FA61D8
:10156000C0E901144910C0E90314FFF7B5FD4FF4B9
:101570008050009069460648FFF706FE049404A9CF
:1015800003480594FFF780FD06B010BD000400403D
:10159000A8000020FEE770470907090E002806DAB8
:1015A00000F00F0000F1E02080F8141D704700F1FA
:1015B000E02080F80014704770B5184C184D4FF4B7
:1015C0000051606848B100222846FFF74CFA606875
:1015D0004FF40041012802D005E00122F4E7207811
:1015E00008B1012200E000222846FFF73CFA6068BB
:1015F0004FF48041022803D1607808B1012200E055
:1016000000222846FFF72FFAA06820B14000E168C9
:10161000801C884201D80020E06070BD00000020DE
:10162000000C0240704770472DE9F041164C02272C
:10163000164801256168002639B1012915D0022913
:1016400011D12169FA291CD814E00121FFF706FA0B
:10165000002808D02069FA2801D9C4E90156C82811
:1016600001D2C4E90175BDE8F0812169C82901D220
:10167000C4E901750121FFF7F1F90028F3D0666094
:10168000F1E7C4E90156F5E7000000200000024040
:10169000FFF7F4B930B593B030216846FEF7E2FDAC
:1016A00014210CA8FEF7DEFD19480024016841F062
:1016B00080510160006800F0805011901548016869
:1016C00041F4404101600068322100F44040119033
:1016D000012003901020049008200225CDE9080184
:1016E00000950421CDE90A10CDE906546846FFF7BC
:1016F00027FB0F20CDE90C054FF4A050CDE90E409B
:1017000000210CA81094FFF753FA13B030BD00006D
:1017100040380240007000401048016841F47001F8
:1017200001600F48016841F0010101600C4A00218D
:101730000832116002680B4B1A400260031D0A4A0E
:101740001A60026822F48022026005480C300160B1
:1017500002495806803908607047000088ED00E0B3
:1017600000380240FFFFF6FE103000240148FFF76A
:1017700085BD00006C0000200148FFF77FBD000020
:10178000A8000020F0B502681B4B1C4C9F031C4DA9
:101790001C4E984207D0B84205D0A04203D0A842C0
:1017A00001D0B04204D122F0700C4A6842EA0C0227
:1017B000984210D0B8420ED0A0420CD0A8420AD015
:1017C000B04208D0104CA04205D0104CA04202D02C
:1017D0000F4CA04203D122F44074CA682243026035
:1017E0008A68C2620A688262984201D1096901630B
:1017F00001214161F0BD00000000014000040040F3
:1018000000080040000C004000400140004401403E
:101810000048014010B5846842EA032224F47F4462
:101820000A432243826010BD826822F070020A439C
:1018300042F007018160704710B5036A046A24F022
:1018400001040462846924F0F00444EA021423F0E1
:101850000A020A438461026210BD10B5036A23F0D4
:10186000100303628369046A23F4704343EA02327B
:1018700024F0A00343EA01118261016210BDFEE77A
:1018800002E008C8121F08C1002AFAD17047704749
:10189000002001E001C1121F002AFBD170470000A7
:1018A000A4B0FFF7F3F8FFF7F5FEFFF7D9FDFFF758
:1018B00021FEFFF747FEFFF7AFFD1948FFF758FC81
:1018C00017483C30FFF754FC15484838FEF7A4FF92
:1018D000134C144E144D483C114934224839684683
:1018E000FEF7A7FC606B0D90A06BE16BCDE90E01DC
:1018F000206C1090606C11904822694612A8FEF787
:1019000098FC314612A8FEF735FF18B9044848384C
:10191000FEF72CFE2861FFF787FEFFF74DFEDBE7A1
:101920006C00002040420F0000000020000000007A
:101930000000000001020304060708095C19000802
:101940000000002024000000801800088019000812
:1019500024000020C40400009018000800000000CB
:101960000000000000000000000000000000000077
:101970000100000010000000000000000024F4003E
:040000050800019955
:00000001FF
